:10000000A6C00000BFC00000BDC00000BBC0000013
:10001000B9C00000B7C00000B5C00000B3C0000008
:10002000B1C00000AFC00000ADC0000049C5000075
:10003000A9C00000A7C00000A5C00000A3C0000028
:10004000A1C000009FC000009DC000009BC0000038
:1000500099C0000097C0000095C0000093C0000048
:1000600091C000008FC000008DC000008BC0000058
:1000700089C00000240350004F004B004B00450096
:100080004E00200043004F004E00540052004F002D
:100090004C004C004500520000001C0348004F007B
:1000A00052004900200043004F002E002C004C005D
:1000B000540044002E000000040309040902290032
:1000C00001010080FA090400000203000000092178
:1000D0001101000122560007050203400005070533
:1000E000810340000512010002000000400D0F9244
:1000F0000000010102000105010905A1011500250B
:100100000135004501750195100509190129108176
:100110000205012507463B0175049501651409395F
:10012000814265009501810126FF0046FF000930EC
:100130000931093209357508950481020600FF0965
:1001400020950181020A212695089102C000112400
:100150001FBECFEFD2E0DEBFCDBF11E0A0E0B1E027
:10016000E8EFFEE002C005900D92A032B107D9F78A
:1001700011E0A0E2B1E001C01D92A733B107E1F7A1
:10018000F2D1B8C63DCFECECF0E01182108287E6E8
:100190008083E8ECF0E080818D7F808386E080932F
:1001A000CA0088E18093C90008959091C80095FF26
:1001B000FCCF8093CE0008958091C80087FFFCCFCC
:1001C0008091CE0008954F925F926F927F928F92AE
:1001D0009F92AF92BF92CF92DF92EF92FF920F93D6
:1001E0001F93CF93DF9323B1809126019091270134
:1001F000A0912801B0912901BA2FA92F982F882703
:10020000820F911DA11DB11D80932601909327019E
:10021000A0932801B093290129B140912201509166
:1002200023016091240170912501762F652F542FB1
:100230004427420F511D611D711D409322015093AF
:1002400023016093240170932501209120013091B6
:100250002101E8E0F0E044244394542C3201C1E051
:10026000D0E08F010850110973016201002E04C013
:10027000CC0CDD1CEE1CFF1C0A94D2F74601570182
:1002800088229922AA22BB228C149D04AE04BF04AA
:1002900049F45E0102C0AA0CBB1C0A95E2F72A29A8
:1002A0003B290FC089288A288B2859F45E0102C097
:1002B000AA0CBB1C0A95E2F7850100951095202336
:1002C00031234601570184229522A622B7228C149D
:1002D0009D04AE04BF0451F48E010E2E02C0000F27
:1002E000111F0A94E2F7202B312B0FC089288A288E
:1002F0008B2859F48E010E2E02C0000F111F0A9494
:10030000E2F700951095202331233196E031F10575
:1003100009F0A7CF3093210120932001DF91CF91E5
:100320001F910F91FF90EF90DF90CF90BF90AF9013
:100330009F908F907F906F905F904F90089584B7BB
:10034000877F84BF88E10FB6F89480936000109295
:1003500060000FBE18DF90E080E80FB6F89480933D
:100360006100909361000FBE8AB11AB88BB18FEF14
:100370008BB994B114B895B185B993C30895089514
:1003800042E360EC82E0CED242E361EC81E0CAC29B
:10039000BF92CF92DF92EF92FF920F931F93CF9372
:1003A000DF93CDB7DEB727970FB6F894DEBF0FBE49
:1003B000CDBF8C0188E0F80111928A95E9F733E30B
:1003C000F32EFADE853571F085E5EFDEFA94C9F794
:1003D00080E8F80183838483858386831182108279
:1003E00088E02AC0E2DECE0101967C016E0198E031
:1003F000C90ED11CE1DEB82ED8DEF701B1927F0123
:10040000EC15FD05B9F78A8190E0982F882729819E
:10041000820F911DF801918380838B8183838C816E
:1004200084838D8185838E8186838F81893010F0CE
:1004300088E08F838F81F801828327960FB6F89426
:10044000DEBF0FBECDBFDF91CF911F910F91FF9007
:10045000EF90DF90CF90BF900895CF93DF93CDB70B
:10046000DEB728970FB6F894DEBF0FBECDBF8091E0
:100470003001813019F08930B1F028C080912F010E
:10048000813A21F5CE01019683DF8091E800877FD4
:100490008093E80068E070E0CE0101963DD1809144
:1004A000E8008B7711C080912F01813279F480911F
:1004B000E800877F8093E80067E070E0CE01019656
:1004C0008FD18091E8008E778093E80028960FB650
:1004D000F894DEBF0FBECDBFDF91CF910895CF93CB
:1004E000DF93CDB7DEB728970FB6F894DEBF0FBE07
:1004F000CDBF80912E01843069F582E08093E900C0
:100500008091E80082FF10C08091E80085FF07C05D
:1005100040E050E067E070E0CE010196B5D08091F8
:10052000E8008B778093E80081E08093E900809178
:10053000E80080FF0FC0CE0101962ADF40E050E0C6
:1005400068E070E0CE01019657D08091E8008E7788
:100550008093E80028960FB6F894DEBF0FBECDBF9B
:10056000DF91CF910895EBDE7894B9DFA7D42BDE2D
:10057000FCCF292F332723303105B9F05CF421302B
:10058000310569F12230310579F589E290E02CEBF3
:1005900030E02EC021323105E9F02232310521F55B
:1005A00086E590E027EF30E023C099278130910560
:1005B00041F08230910541F0892BB1F4E8EBF0E095
:1005C00005C0EAE9F0E002C0E4E7F0E0849190E0E1
:1005D0009F010EC089E090E02EEC30E009C082E17E
:1005E00090E025EE30E004C080E090E020E030E0D4
:1005F000FA01318320830895CF92DF92EF92FF9228
:100600000F931F93CF93DF937C018B01EA01E0D11D
:10061000811131C0209731F088819981081B190B15
:10062000E80EF91EC12CD12C0115110519F180918C
:10063000E80085FD14C08091E8008E778093E80083
:100640003DD4209741F0888199818C0D9D1D99831F
:10065000888385E010C0BCD1882331F30CC0F7013A
:1006600081917F018093F10001501109FFEFCF1AB2
:10067000DF0ADACF80E0DF91CF911F910F91FF90D9
:10068000EF90DF90CF900895CF92DF92EF92FF929C
:100690000F931F93CF93DF937C018B01EA0198D1D5
:1006A000811131C0209731F088819981081B190B85
:1006B000E80EF91EC12CD12C0115110519F18091FC
:1006C000E80085FD14C08091E8008B778093E800F6
:1006D000F5D3209741F0888199818C0D9D1D9983D8
:1006E000888385E010C074D1882331F30CC08091D9
:1006F000F100F70181937F0101501109FFEFCF1A3B
:10070000DF0ADACF80E0DF91CF911F910F91FF9048
:10071000EF90DF90CF900895209135013091360110
:100720002617370748F06115710539F42091E80064
:100730002E772093E80001C0B90120E06115710512
:10074000D9F130912E01332309F444C0353009F436
:1007500043C03091E80033FD41C03091E80032FFE2
:1007600006C08091E80082FF2AC080E008953091A1
:10077000E80030FFE3CF2091F20030E0FC01281BBD
:10078000390BCF01820F931F6115710549F0803439
:10079000910530F481918093F10061507109F1CF9E
:1007A00021E08034910509F020E08091E8008E7707
:1007B0008093E800CF01C2CF2111C3CFD2CF809167
:1007C0002E01882339F0853039F08091E80083FFCD
:1007D000C8CF04C082E0089583E0089581E00895C1
:1007E0006115710529F42091E8002B772093E8002A
:1007F0006115710521F120912E01222349F1253047
:1008000049F12091E80023FD1FC02091E80022FF5C
:10081000F2CFFC01CF012091F200222321F380913D
:10082000F1008193CF01615071096115710591F754
:10083000DACF80912E01882359F0853059F08091CC
:10084000E80080FFF6CF02C081E0089580E00895BF
:1008500082E0089583E008952091350130913601BA
:100860002617370748F06115710539F42091E80023
:100870002E772093E80001C0B90120E061157105D1
:1008800009F43CC030912E01332309F445C03530C2
:1008900009F444C03091E80033FD42C03091E800D3
:1008A00032FF06C08091E80082FF2BC080E00895EF
:1008B0003091E80030FFE2CF2091F20030E0FC01FF
:1008C000281B390BC9018E0F9F1F6115710551F04F
:1008D0008034910538F484918093F1003196615011
:1008E0007109F0CF21E08034910509F020E080917A
:1008F000E8008E778093E800CF01C0CF2111C2CFEE
:10090000D1CF80912E01882339F0853039F0809144
:10091000E80083FFC7CF04C082E0089583E0089514
:1009200081E00895982F953058F59093E900981735
:1009300039F07091EC002091ED005091F00003C06F
:10094000242F762F50E021FF19C03091EB003E7F1D
:100950003093EB003091ED003D7F3093ED0030910E
:10096000EB0031603093EB007093EC002093ED00CE
:100970005093F0002091EE0027FF07C09F5FD3CF78
:100980008F708093E90081E0089580E00895809160
:100990002F0187FD05C08091E80080FF0EC012C0C6
:1009A0008091E80082FD05C080912E018111F8CF71
:1009B00008958091E8008B7708C080912E01811105
:1009C000EACF08958091E8008E778093E80008953B
:1009D0008091E4009091E50045E62091EC0020FF35
:1009E00021C02091E80020FD21C020912E0122236A
:1009F00089F0253089F02091EB0025FD0FC0209172
:100A0000E4003091E5002817390739F3415041F0EF
:100A1000C901E3CF82E0089583E0089581E008955D
:100A200084E008952091E80022FFDFCF80E0089560
:100A300041D043D08091D8008F778093D8008091A7
:100A4000D80080688093D8008091D8008F7D8093F3
:100A5000D80084E089BD86E089BD09B400FEFDCFE1
:100A600010922E0110922A0110922C0110922B014B
:100A700042E360E080E056DF8091E1008E7F80936A
:100A8000E1008091E20081608093E2008091E200C9
:100A900088608093E2008091E0008E7F8093E00088
:100AA0000895E3E6F0E080818E7F808381E080938B
:100AB0002D01BECF1092E20008951092E10008953A
:100AC0001F920F920FB60F9211242F933F934F93C3
:100AD0005F936F937F938F939F93AF93BF93EF93A6
:100AE000FF938091E10082FF0AC08091E20082FFC3
:100AF00006C08091E1008B7F8093E100DED1809180
:100B0000E10080FF17C08091E20080FF13C0809158
:100B1000E2008E7F8093E2008091E200806180930A
:100B2000E2008091D80080628093D80019BC1092B6
:100B30002E0125DC8091E10084FF2FC08091E2002E
:100B400084FF2BC084E089BD86E089BD09B400FE26
:100B5000FDCF8091D8008F7D8093D8008091E100F7
:100B60008F7E8093E1008091E2008F7E8093E2008F
:100B70008091E20081608093E20080912A018823C5
:100B800011F084E007C08091E30087FF02C083E09A
:100B900001C081E080932E01F1DB8091E10083FFB1
:100BA00022C08091E20083FF1EC08091E100877F18
:100BB0008093E10082E080932E0110922A018091BF
:100BC000E1008E7F8093E1008091E2008E7F809330
:100BD000E2008091E20080618093E20042E360E005
:100BE00080E0A0DE6AD1FF91EF91BF91AF919F911C
:100BF0008F917F916F915F914F913F912F910F90C6
:100C00000FBE0F901F9018951F93CF93DF93CDB712
:100C1000DEB7AA970FB6F894DEBF0FBECDBFEFE2E6
:100C2000F1E08091F100819321E0E733F207C9F709
:100C300014DC8091E80083FF28C190912F018091FE
:100C40003001853009F481C030F48130A9F168F0B9
:100C5000833091F11AC1883009F4ECC0893009F46D
:100C6000F8C0863009F011C192C0903821F0923856
:100C700009F00BC108C080912B0190912C019923A0
:100C800089F082600FC0809133018F70853008F049
:100C9000FCC08093E9008091EB0085FB882780F9F8
:100CA0001092E9009091E800977F9093E80080937C
:100CB000F1001092F100C9C0292F2D7F09F0E5C085
:100CC000992319F0923061F0E0C090913101913098
:100CD00009F0DBC0833009F090E090932C012CC028
:100CE00090913101911128C0209133012F709FEF15
:100CF000920F943008F0C9C02093E9009091EB0066
:100D000090FF1AC0833021F48091EB00806212C002
:100D10008091EB0080618093EB0081E090E001C066
:100D2000880F2A95EAF78093EA001092EA008091F2
:100D3000EB0088608093EB001092E9008091E8005E
:100D4000877F8093E80023DEA0C091119EC01091A0
:100D500031011F778091E3008078812B8093E3003D
:100D60008091E800877F8093E80011DE8091E800A1
:100D700080FFFCCF8091E30080688093E300112323
:100D800011F083E001C082E080932E017EC0905874
:100D9000923008F07AC080913101909132018C3DFF
:100DA00023E0920771F583E08A838AE289834FB753
:100DB000F894DE01139620E03EE051E2E32FF0E0EC
:100DC00050935700E49120FF03C0E295EF703F5F1E
:100DD000EF708E2F90E0EA3010F0C79601C0C096F9
:100DE0008D939D932F5F243149F74FBF8091E80089
:100DF000877F8093E8006AE270E0CE0101968CDC88
:100E000013C06091330170913401AE014F5F5F4FA9
:100E1000B0DB0097D1F12091E800277F2093E80014
:100E2000BC0189819A8118DD8091E8008B778093DD
:100E3000E8002BC0903849F58091E800877F8093C7
:100E4000E80080912A018093F1008091E8008E777C
:100E500078CF91111AC0909131019230B0F4809105
:100E6000E800877F8093E80090932A0190DD8091CD
:100E70002A01811104C08091E30087FF02C084E051
:100E800001C081E080932E017BDA8091E80083FF2E
:100E90000AC08091E800877F8093E8008091EB0092
:100EA00080628093EB00AA960FB6F894DEBF0FBE67
:100EB000CDBFDF91CF911F9108950895CF93809179
:100EC0002E018823A9F08091E9008F709091EC00A9
:100ED00090FF02C090E801C090E0C92FC82B10928B
:100EE000E9008091E80083FD8FDECF70C093E900B8
:080EF000CF910895F894FFCFA3
:100EF80001000200040008001000200040008000EB
:100F080000010002000400080010002000400080DA
:00000001FF
